{
  "contractName": "Ehr",
  "abi": [
    {
      "inputs": [
        {
          "internalType": "uint256",
          "name": "",
          "type": "uint256"
        }
      ],
      "name": "Records",
      "outputs": [
        {
          "internalType": "uint256",
          "name": "patientID",
          "type": "uint256"
        },
        {
          "internalType": "string",
          "name": "name",
          "type": "string"
        },
        {
          "internalType": "string",
          "name": "condition",
          "type": "string"
        },
        {
          "internalType": "address",
          "name": "provider",
          "type": "address"
        }
      ],
      "stateMutability": "view",
      "type": "function",
      "constant": true
    },
    {
      "inputs": [
        {
          "internalType": "uint256",
          "name": "",
          "type": "uint256"
        }
      ],
      "name": "ValidDoctors",
      "outputs": [
        {
          "internalType": "uint256",
          "name": "doctorId",
          "type": "uint256"
        },
        {
          "internalType": "string",
          "name": "name",
          "type": "string"
        },
        {
          "internalType": "address",
          "name": "provider",
          "type": "address"
        }
      ],
      "stateMutability": "view",
      "type": "function",
      "constant": true
    },
    {
      "inputs": [
        {
          "internalType": "address",
          "name": "_a",
          "type": "address"
        },
        {
          "internalType": "string",
          "name": "_name",
          "type": "string"
        }
      ],
      "name": "ValidateDoctor",
      "outputs": [],
      "stateMutability": "nonpayable",
      "type": "function"
    },
    {
      "inputs": [],
      "name": "getValidDoctors",
      "outputs": [
        {
          "components": [
            {
              "internalType": "uint256",
              "name": "doctorId",
              "type": "uint256"
            },
            {
              "internalType": "string",
              "name": "name",
              "type": "string"
            },
            {
              "internalType": "address",
              "name": "provider",
              "type": "address"
            }
          ],
          "internalType": "struct Ehr.Doctor[]",
          "name": "",
          "type": "tuple[]"
        }
      ],
      "stateMutability": "view",
      "type": "function",
      "constant": true
    },
    {
      "inputs": [
        {
          "internalType": "address",
          "name": "_a",
          "type": "address"
        },
        {
          "internalType": "string",
          "name": "_name",
          "type": "string"
        },
        {
          "internalType": "string",
          "name": "_condition",
          "type": "string"
        }
      ],
      "name": "addMedicalRecord",
      "outputs": [],
      "stateMutability": "nonpayable",
      "type": "function"
    },
    {
      "inputs": [],
      "name": "getMedicalRecord",
      "outputs": [
        {
          "components": [
            {
              "internalType": "uint256",
              "name": "patientID",
              "type": "uint256"
            },
            {
              "internalType": "string",
              "name": "name",
              "type": "string"
            },
            {
              "internalType": "string",
              "name": "condition",
              "type": "string"
            },
            {
              "internalType": "address",
              "name": "provider",
              "type": "address"
            }
          ],
          "internalType": "struct Ehr.MedicalRecord[]",
          "name": "",
          "type": "tuple[]"
        }
      ],
      "stateMutability": "view",
      "type": "function",
      "constant": true
    },
    {
      "inputs": [
        {
          "internalType": "address",
          "name": "_a",
          "type": "address"
        }
      ],
      "name": "checkDoctor",
      "outputs": [
        {
          "internalType": "bool",
          "name": "",
          "type": "bool"
        }
      ],
      "stateMutability": "view",
      "type": "function",
      "constant": true
    }
  ],
  "bytecode": "0x6080604052600080556000600155348015601857600080fd5b50611644806100286000396000f3fe608060405234801561001057600080fd5b506004361061009a576000357c01000000000000000000000000000000000000000000000000000000009004806366da29a21161007857806366da29a21461010b578063793de5f01461013e57806379908e871461016e578063aa0ced901461018c5761009a565b80630f38f0871461009f57806311a40d42146100bb57806336a6badd146100ed575b600080fd5b6100b960048036038101906100b49190610c67565b6101a8565b005b6100d560048036038101906100d09190610cf9565b610292565b6040516100e493929190610dc3565b60405180910390f35b6100f5610374565b6040516101029190610f95565b60405180910390f35b61012560048036038101906101209190610cf9565b610557565b6040516101359493929190610fb7565b60405180910390f35b6101586004803603810190610153919061100a565b6106c7565b6040516101659190611052565b60405180910390f35b610176610776565b604051610183919061117f565b60405180910390f35b6101a660048036038101906101a191906111a1565b6108c7565b005b6000604051806060016040528060015481526020018381526020018473ffffffffffffffffffffffffffffffffffffffff168152509050600381908060018154018082558091505060019003906000526020600020906003020160009091909190915060008201518160000155602082015181600101908161022a919061143e565b5060408201518160020160006101000a81548173ffffffffffffffffffffffffffffffffffffffff021916908373ffffffffffffffffffffffffffffffffffffffff16021790555050506001806000828254610286919061153f565b92505081905550505050565b600381815481106102a257600080fd5b90600052602060002090600302016000915090508060000154908060010180546102cb9061125b565b80601f01602080910402602001604051908101604052809291908181526020018280546102f79061125b565b80156103445780601f1061031957610100808354040283529160200191610344565b820191906000526020600020905b81548152906001019060200180831161032757829003601f168201915b5050505050908060020160009054906101000a900473ffffffffffffffffffffffffffffffffffffffff16905083565b60606002805480602002602001604051908101604052809291908181526020016000905b8282101561054e5783829060005260206000209060040201604051806080016040529081600082015481526020016001820180546103d59061125b565b80601f01602080910402602001604051908101604052809291908181526020018280546104019061125b565b801561044e5780601f106104235761010080835404028352916020019161044e565b820191906000526020600020905b81548152906001019060200180831161043157829003601f168201915b505050505081526020016002820180546104679061125b565b80601f01602080910402602001604051908101604052809291908181526020018280546104939061125b565b80156104e05780601f106104b5576101008083540402835291602001916104e0565b820191906000526020600020905b8154815290600101906020018083116104c357829003601f168201915b505050505081526020016003820160009054906101000a900473ffffffffffffffffffffffffffffffffffffffff1673ffffffffffffffffffffffffffffffffffffffff1673ffffffffffffffffffffffffffffffffffffffff168152505081526020019060010190610398565b50505050905090565b6002818154811061056757600080fd5b90600052602060002090600402016000915090508060000154908060010180546105909061125b565b80601f01602080910402602001604051908101604052809291908181526020018280546105bc9061125b565b80156106095780601f106105de57610100808354040283529160200191610609565b820191906000526020600020905b8154815290600101906020018083116105ec57829003601f168201915b50505050509080600201805461061e9061125b565b80601f016020809104026020016040519081016040528092919081815260200182805461064a9061125b565b80156106975780601f1061066c57610100808354040283529160200191610697565b820191906000526020600020905b81548152906001019060200180831161067a57829003601f168201915b5050505050908060030160009054906101000a900473ffffffffffffffffffffffffffffffffffffffff16905084565b6000806000905060005b60038054905081101561076c578373ffffffffffffffffffffffffffffffffffffffff166003828154811061070957610708611573565b5b906000526020600020906003020160020160009054906101000a900473ffffffffffffffffffffffffffffffffffffffff1673ffffffffffffffffffffffffffffffffffffffff160361075f576001915061076c565b80806001019150506106d1565b5080915050919050565b60606003805480602002602001604051908101604052809291908181526020016000905b828210156108be5783829060005260206000209060030201604051806060016040529081600082015481526020016001820180546107d79061125b565b80601f01602080910402602001604051908101604052809291908181526020018280546108039061125b565b80156108505780601f1061082557610100808354040283529160200191610850565b820191906000526020600020905b81548152906001019060200180831161083357829003601f168201915b505050505081526020016002820160009054906101000a900473ffffffffffffffffffffffffffffffffffffffff1673ffffffffffffffffffffffffffffffffffffffff1673ffffffffffffffffffffffffffffffffffffffff16815250508152602001906001019061079a565b50505050905090565b6000805b600380549050811015610966578473ffffffffffffffffffffffffffffffffffffffff166003828154811061090357610902611573565b5b906000526020600020906003020160020160009054906101000a900473ffffffffffffffffffffffffffffffffffffffff1673ffffffffffffffffffffffffffffffffffffffff16036109595760019150610966565b80806001019150506108cb565b50806109a7576040517f08c379a000000000000000000000000000000000000000000000000000000000815260040161099e906115ee565b60405180910390fd5b6000604051806080016040528060005481526020018581526020018481526020018673ffffffffffffffffffffffffffffffffffffffff16815250905060016000808282546109f6919061153f565b925050819055506002819080600181540180825580915050600190039060005260206000209060040201600090919091909150600082015181600001556020820151816001019081610a48919061143e565b506040820151816002019081610a5e919061143e565b5060608201518160030160006101000a81548173ffffffffffffffffffffffffffffffffffffffff021916908373ffffffffffffffffffffffffffffffffffffffff16021790555050505050505050565b6000604051905090565b600080fd5b600080fd5b600073ffffffffffffffffffffffffffffffffffffffff82169050919050565b6000610aee82610ac3565b9050919050565b610afe81610ae3565b8114610b0957600080fd5b50565b600081359050610b1b81610af5565b92915050565b600080fd5b600080fd5b6000601f19601f8301169050919050565b7f4e487b7100000000000000000000000000000000000000000000000000000000600052604160045260246000fd5b610b7482610b2b565b810181811067ffffffffffffffff82111715610b9357610b92610b3c565b5b80604052505050565b6000610ba6610aaf565b9050610bb28282610b6b565b919050565b600067ffffffffffffffff821115610bd257610bd1610b3c565b5b610bdb82610b2b565b9050602081019050919050565b82818337600083830152505050565b6000610c0a610c0584610bb7565b610b9c565b905082815260208101848484011115610c2657610c25610b26565b5b610c31848285610be8565b509392505050565b600082601f830112610c4e57610c4d610b21565b5b8135610c5e848260208601610bf7565b91505092915050565b60008060408385031215610c7e57610c7d610ab9565b5b6000610c8c85828601610b0c565b925050602083013567ffffffffffffffff811115610cad57610cac610abe565b5b610cb985828601610c39565b9150509250929050565b6000819050919050565b610cd681610cc3565b8114610ce157600080fd5b50565b600081359050610cf381610ccd565b92915050565b600060208284031215610d0f57610d0e610ab9565b5b6000610d1d84828501610ce4565b91505092915050565b610d2f81610cc3565b82525050565b600081519050919050565b600082825260208201905092915050565b60005b83811015610d6f578082015181840152602081019050610d54565b60008484015250505050565b6000610d8682610d35565b610d908185610d40565b9350610da0818560208601610d51565b610da981610b2b565b840191505092915050565b610dbd81610ae3565b82525050565b6000606082019050610dd86000830186610d26565b8181036020830152610dea8185610d7b565b9050610df96040830184610db4565b949350505050565b600081519050919050565b600082825260208201905092915050565b6000819050602082019050919050565b610e3681610cc3565b82525050565b600082825260208201905092915050565b6000610e5882610d35565b610e628185610e3c565b9350610e72818560208601610d51565b610e7b81610b2b565b840191505092915050565b610e8f81610ae3565b82525050565b6000608083016000830151610ead6000860182610e2d565b5060208301518482036020860152610ec58282610e4d565b91505060408301518482036040860152610edf8282610e4d565b9150506060830151610ef46060860182610e86565b508091505092915050565b6000610f0b8383610e95565b905092915050565b6000602082019050919050565b6000610f2b82610e01565b610f358185610e0c565b935083602082028501610f4785610e1d565b8060005b85811015610f835784840389528151610f648582610eff565b9450610f6f83610f13565b925060208a01995050600181019050610f4b565b50829750879550505050505092915050565b60006020820190508181036000830152610faf8184610f20565b905092915050565b6000608082019050610fcc6000830187610d26565b8181036020830152610fde8186610d7b565b90508181036040830152610ff28185610d7b565b90506110016060830184610db4565b95945050505050565b6000602082840312156110205761101f610ab9565b5b600061102e84828501610b0c565b91505092915050565b60008115159050919050565b61104c81611037565b82525050565b60006020820190506110676000830184611043565b92915050565b600081519050919050565b600082825260208201905092915050565b6000819050602082019050919050565b60006060830160008301516110b16000860182610e2d565b50602083015184820360208601526110c98282610e4d565b91505060408301516110de6040860182610e86565b508091505092915050565b60006110f58383611099565b905092915050565b6000602082019050919050565b60006111158261106d565b61111f8185611078565b93508360208202850161113185611089565b8060005b8581101561116d578484038952815161114e85826110e9565b9450611159836110fd565b925060208a01995050600181019050611135565b50829750879550505050505092915050565b60006020820190508181036000830152611199818461110a565b905092915050565b6000806000606084860312156111ba576111b9610ab9565b5b60006111c886828701610b0c565b935050602084013567ffffffffffffffff8111156111e9576111e8610abe565b5b6111f586828701610c39565b925050604084013567ffffffffffffffff81111561121657611215610abe565b5b61122286828701610c39565b9150509250925092565b7f4e487b7100000000000000000000000000000000000000000000000000000000600052602260045260246000fd5b6000600282049050600182168061127357607f821691505b6020821081036112865761128561122c565b5b50919050565b60008190508160005260206000209050919050565b60006020601f8301049050919050565b60008160020a8302905092915050565b6000600883026112f17fffffffffffffffffffffffffffffffffffffffffffffffffffffffffffffffff826112b1565b6112fb86836112b1565b95508019841693508086168417925050509392505050565b6000819050919050565b600061133861133361132e84610cc3565b611313565b610cc3565b9050919050565b6000819050919050565b6113528361131d565b61136661135e8261133f565b8484546112c1565b825550505050565b600090565b61137b61136e565b611386818484611349565b505050565b5b818110156113aa5761139f600082611373565b60018101905061138c565b5050565b601f8211156113ef576113c08161128c565b6113c9846112a1565b810160208510156113d8578190505b6113ec6113e4856112a1565b83018261138b565b50505b505050565b60008160020a8304905092915050565b6000611415600019846008026113f4565b1980831691505092915050565b600061142e8383611404565b9150826002028217905092915050565b61144782610d35565b67ffffffffffffffff8111156114605761145f610b3c565b5b61146a825461125b565b6114758282856113ae565b600060209050601f8311600181146114a85760008415611496578287015190505b6114a08582611422565b865550611508565b601f1984166114b68661128c565b60005b828110156114de578489015182556001820191506020850194506020810190506114b9565b868310156114fb57848901516114f7601f891682611404565b8355505b6001600288020188555050505b505050505050565b7f4e487b7100000000000000000000000000000000000000000000000000000000600052601160045260246000fd5b600061154a82610cc3565b915061155583610cc3565b925082820190508082111561156d5761156c611510565b5b92915050565b7f4e487b7100000000000000000000000000000000000000000000000000000000600052603260045260246000fd5b7f556e617574686f72697a65642055736572000000000000000000000000000000600082015250565b60006115d8601183610d40565b91506115e3826115a2565b602082019050919050565b60006020820190508181036000830152611607816115cb565b905091905056fea2646970667358221220ba7bb120aa967592525691fee196be2f17212eff52d99839cba6fe7358cdbc7e64736f6c63430008190033",
  "immutableReferences": {},
  "source": "// SPDX-License-Identifier: MIT\r\npragma solidity ^0.8.25;\r\n\r\ncontract Ehr {\r\n\r\n    struct Doctor{\r\n        uint256 doctorId;\r\n        string name;\r\n        address provider;\r\n    }\r\n\r\n    uint patientid = 0;\r\n    uint docId = 0;\r\n\r\n    struct MedicalRecord{\r\n\r\n        uint256 patientID;\r\n        string name;\r\n        string condition;\r\n        address provider;\r\n    }\r\n\r\n    MedicalRecord[] public Records;\r\n    Doctor[] public ValidDoctors;\r\n\r\n\r\n    function ValidateDoctor(address _a, string memory _name ) public {\r\n        Doctor memory newDoctor = Doctor(docId,_name, _a);\r\n        ValidDoctors.push(newDoctor);\r\n        docId +=1;\r\n    }\r\n\r\n    function getValidDoctors() public view returns(Doctor[] memory)\r\n    {\r\n        return ValidDoctors;\r\n    }\r\n\r\n    function addMedicalRecord(address _a, string memory _name, string memory _condition ) public {\r\n\r\n        bool isValid = false;\r\n        for( uint i=0;i<ValidDoctors.length;i++)\r\n        {\r\n            if(ValidDoctors[i].provider == _a)\r\n            {\r\n                isValid = true;\r\n                break;\r\n            }\r\n        }\r\n\r\n        require(isValid, \"Unauthorized User\");\r\n        MedicalRecord memory newRecord = MedicalRecord(patientid, _name, _condition, _a);\r\n        patientid +=1;\r\n        Records.push(newRecord);\r\n    }\r\n\r\n    function getMedicalRecord() public view returns(MedicalRecord[] memory){\r\n        return Records;\r\n    }\r\n\r\n    function checkDoctor(address _a) public view returns (bool)\r\n    {\r\n        bool isValid = false;\r\n        for(uint i=0;i<ValidDoctors.length;i++)\r\n        {\r\n            if(ValidDoctors[i].provider == _a)\r\n            {\r\n                isValid = true;\r\n                break;\r\n            }\r\n        }\r\n\r\n        return isValid;\r\n    }\r\n\r\n\r\n}",
  "sourcePath": "C:\\Users\\aster\\Desktop\\project\\contracts\\Ehr.sol",
  "compiler": {
    "name": "solc",
    "version": "0.8.25+commit.b61c2a91.Emscripten.clang"
  },
  "schemaVersion": "3.4.16",
  "updatedAt": "2024-04-18T19:32:45.978Z",
  "networkType": "ethereum",
  "devdoc": {
    "kind": "dev",
    "methods": {},
    "version": 1
  },
  "userdoc": {
    "kind": "user",
    "methods": {},
    "version": 1
  }
}