{
  "contractName": "Ehr",
  "abi": [
    {
      "constant": true,
      "inputs": [
        {
          "name": "",
          "type": "uint256"
        }
      ],
      "name": "medicalRecords",
      "outputs": [
        {
          "name": "patientId",
          "type": "uint256"
        },
        {
          "name": "name",
          "type": "string"
        },
        {
          "name": "condition",
          "type": "string"
        },
        {
          "name": "timestamp",
          "type": "uint256"
        },
        {
          "name": "provider",
          "type": "address"
        }
      ],
      "payable": false,
      "stateMutability": "view",
      "type": "function"
    },
    {
      "constant": true,
      "inputs": [
        {
          "name": "",
          "type": "uint256"
        },
        {
          "name": "",
          "type": "address"
        }
      ],
      "name": "authorizedProviders",
      "outputs": [
        {
          "name": "",
          "type": "bool"
        }
      ],
      "payable": false,
      "stateMutability": "view",
      "type": "function"
    },
    {
      "anonymous": false,
      "inputs": [
        {
          "indexed": true,
          "name": "patientId",
          "type": "uint256"
        },
        {
          "indexed": false,
          "name": "name",
          "type": "string"
        },
        {
          "indexed": false,
          "name": "condition",
          "type": "string"
        },
        {
          "indexed": false,
          "name": "timestamp",
          "type": "uint256"
        },
        {
          "indexed": false,
          "name": "provider",
          "type": "address"
        }
      ],
      "name": "MedicalRecordAdded",
      "type": "event"
    },
    {
      "constant": false,
      "inputs": [
        {
          "name": "_patientId",
          "type": "uint256"
        },
        {
          "name": "_name",
          "type": "string"
        },
        {
          "name": "_condition",
          "type": "string"
        }
      ],
      "name": "addMedicalRecord",
      "outputs": [],
      "payable": false,
      "stateMutability": "nonpayable",
      "type": "function"
    },
    {
      "constant": false,
      "inputs": [
        {
          "name": "_patientId",
          "type": "uint256"
        },
        {
          "name": "_provider",
          "type": "address"
        }
      ],
      "name": "authorizeProvider",
      "outputs": [],
      "payable": false,
      "stateMutability": "nonpayable",
      "type": "function"
    },
    {
      "constant": false,
      "inputs": [
        {
          "name": "_patientId",
          "type": "uint256"
        },
        {
          "name": "_provider",
          "type": "address"
        }
      ],
      "name": "revokeAuthorization",
      "outputs": [],
      "payable": false,
      "stateMutability": "nonpayable",
      "type": "function"
    },
    {
      "constant": true,
      "inputs": [],
      "name": "getMedicalRecordCount",
      "outputs": [
        {
          "name": "",
          "type": "uint256"
        }
      ],
      "payable": false,
      "stateMutability": "view",
      "type": "function"
    },
    {
      "constant": true,
      "inputs": [],
      "name": "getMedicalRecords",
      "outputs": [
        {
          "components": [
            {
              "name": "patientId",
              "type": "uint256"
            },
            {
              "name": "name",
              "type": "string"
            },
            {
              "name": "condition",
              "type": "string"
            },
            {
              "name": "timestamp",
              "type": "uint256"
            },
            {
              "name": "provider",
              "type": "address"
            }
          ],
          "name": "",
          "type": "tuple[]"
        }
      ],
      "payable": false,
      "stateMutability": "view",
      "type": "function"
    }
  ],
  "bytecode": "0x608060405234801561001057600080fd5b50610e87806100206000396000f3fe608060405260043610610083576000357c0100000000000000000000000000000000000000000000000000000000900463ffffffff1680636aea20d3146100885780636f1005e6146100b35780637564a13c146100dc578063835ba6d11461011d5780639e3b65651461015a578063a1bfc66c14610183578063c3612ef7146101ae575b600080fd5b34801561009457600080fd5b5061009d6101d7565b6040516100aa9190610bc0565b60405180910390f35b3480156100bf57600080fd5b506100da60048036036100d59190810190610972565b6103e5565b005b3480156100e857600080fd5b5061010360048036036100fe9190810190610949565b610451565b604051610114959493929190610c6b565b60405180910390f35b34801561012957600080fd5b50610144600480360361013f9190810190610972565b6105e6565b6040516101519190610be2565b60405180910390f35b34801561016657600080fd5b50610181600480360361017c91908101906109ae565b610615565b005b34801561018f57600080fd5b50610198610767565b6040516101a59190610c50565b60405180910390f35b3480156101ba57600080fd5b506101d560048036036101d09190810190610972565b610773565b005b60606000805480602002602001604051908101604052809291908181526020016000905b828210156103dc578382906000526020600020906005020160a0604051908101604052908160008201548152602001600182018054600181600116156101000203166002900480601f0160208091040260200160405190810160405280929190818152602001828054600181600116156101000203166002900480156102c25780601f10610297576101008083540402835291602001916102c2565b820191906000526020600020905b8154815290600101906020018083116102a557829003601f168201915b50505050508152602001600282018054600181600116156101000203166002900480601f0160208091040260200160405190810160405280929190818152602001828054600181600116156101000203166002900480156103645780601f1061033957610100808354040283529160200191610364565b820191906000526020600020905b81548152906001019060200180831161034757829003601f168201915b50505050508152602001600382015481526020016004820160009054906101000a900473ffffffffffffffffffffffffffffffffffffffff1673ffffffffffffffffffffffffffffffffffffffff1673ffffffffffffffffffffffffffffffffffffffff1681525050815260200190600101906101fb565b50505050905090565b600180600084815260200190815260200160002060008373ffffffffffffffffffffffffffffffffffffffff1673ffffffffffffffffffffffffffffffffffffffff16815260200190815260200160002060006101000a81548160ff0219169083151502179055505050565b60008181548110151561046057fe5b9060005260206000209060050201600091509050806000015490806001018054600181600116156101000203166002900480601f0160208091040260200160405190810160405280929190818152602001828054600181600116156101000203166002900480156105125780601f106104e757610100808354040283529160200191610512565b820191906000526020600020905b8154815290600101906020018083116104f557829003601f168201915b505050505090806002018054600181600116156101000203166002900480601f0160208091040260200160405190810160405280929190818152602001828054600181600116156101000203166002900480156105b05780601f10610585576101008083540402835291602001916105b0565b820191906000526020600020905b81548152906001019060200180831161059357829003601f168201915b5050505050908060030154908060040160009054906101000a900473ffffffffffffffffffffffffffffffffffffffff16905085565b60016020528160005260406000206020528060005260406000206000915091509054906101000a900460ff1681565b61061d6107e0565b60a0604051908101604052808581526020018481526020018381526020014281526020013373ffffffffffffffffffffffffffffffffffffffff168152509050600081908060018154018082558091505090600182039060005260206000209060050201600090919290919091506000820151816000015560208201518160010190805190602001906106b1929190610826565b5060408201518160020190805190602001906106ce929190610826565b506060820151816003015560808201518160040160006101000a81548173ffffffffffffffffffffffffffffffffffffffff021916908373ffffffffffffffffffffffffffffffffffffffff160217905550505050837f777bbadaa9c53c1d36528d142a6d0d136b1c96763710bd10df22259fb4fae122848442336040516107599493929190610bfd565b60405180910390a250505050565b60008080549050905090565b60006001600084815260200190815260200160002060008373ffffffffffffffffffffffffffffffffffffffff1673ffffffffffffffffffffffffffffffffffffffff16815260200190815260200160002060006101000a81548160ff0219169083151502179055505050565b60a06040519081016040528060008152602001606081526020016060815260200160008152602001600073ffffffffffffffffffffffffffffffffffffffff1681525090565b828054600181600116156101000203166002900490600052602060002090601f016020900481019282601f1061086757805160ff1916838001178555610895565b82800160010185558215610895579182015b82811115610894578251825591602001919060010190610879565b5b5090506108a291906108a6565b5090565b6108c891905b808211156108c45760008160009055506001016108ac565b5090565b90565b60006108d78235610da8565b905092915050565b600082601f83011215156108f257600080fd5b813561090561090082610cf9565b610ccc565b9150808252602083016020830185838301111561092157600080fd5b61092c838284610dfa565b50505092915050565b60006109418235610dba565b905092915050565b60006020828403121561095b57600080fd5b600061096984828501610935565b91505092915050565b6000806040838503121561098557600080fd5b600061099385828601610935565b92505060206109a4858286016108cb565b9150509250929050565b6000806000606084860312156109c357600080fd5b60006109d186828701610935565b935050602084013567ffffffffffffffff8111156109ee57600080fd5b6109fa868287016108df565b925050604084013567ffffffffffffffff811115610a1757600080fd5b610a23868287016108df565b9150509250925092565b610a3681610dc4565b82525050565b610a4581610d60565b82525050565b6000610a5682610d32565b80845260208401935083602082028501610a6f85610d25565b60005b84811015610aa8578383038852610a8a838351610b34565b9250610a9582610d53565b9150602088019750600181019050610a72565b508196508694505050505092915050565b610ac281610d72565b82525050565b6000610ad382610d48565b808452610ae7816020860160208601610e09565b610af081610e3c565b602085010191505092915050565b6000610b0982610d3d565b808452610b1d816020860160208601610e09565b610b2681610e3c565b602085010191505092915050565b600060a083016000830151610b4c6000860182610bb1565b5060208301518482036020860152610b648282610afe565b91505060408301518482036040860152610b7e8282610afe565b9150506060830151610b936060860182610bb1565b506080830151610ba66080860182610a3c565b508091505092915050565b610bba81610d9e565b82525050565b60006020820190508181036000830152610bda8184610a4b565b905092915050565b6000602082019050610bf76000830184610ab9565b92915050565b60006080820190508181036000830152610c178187610ac8565b90508181036020830152610c2b8186610ac8565b9050610c3a6040830185610bb1565b610c476060830184610a2d565b95945050505050565b6000602082019050610c656000830184610bb1565b92915050565b600060a082019050610c806000830188610bb1565b8181036020830152610c928187610afe565b90508181036040830152610ca68186610afe565b9050610cb56060830185610bb1565b610cc26080830184610a3c565b9695505050505050565b6000604051905081810181811067ffffffffffffffff82111715610cef57600080fd5b8060405250919050565b600067ffffffffffffffff821115610d1057600080fd5b601f19601f8301169050602081019050919050565b6000602082019050919050565b600081519050919050565b600081519050919050565b600081519050919050565b6000602082019050919050565b6000610d6b82610d7e565b9050919050565b60008115159050919050565b600073ffffffffffffffffffffffffffffffffffffffff82169050919050565b6000819050919050565b6000610db382610d7e565b9050919050565b6000819050919050565b6000610dcf82610dd6565b9050919050565b6000610de182610de8565b9050919050565b6000610df382610d7e565b9050919050565b82818337600083830152505050565b60005b83811015610e27578082015181840152602081019050610e0c565b83811115610e36576000848401525b50505050565b6000601f19601f830116905091905056fea265627a7a72305820e53dc38618427256938d47c02e8203fcc30cbab7cf66799f0580d42b2de639f26c6578706572696d656e74616cf50037",
  "source": "// SPDX-License-Identifier: MIT\r\npragma solidity >=0.5.0 <0.9.0;\r\npragma experimental ABIEncoderV2;\r\ncontract Ehr {\r\n    // Struct to represent a patient's medical record\r\n    struct MedicalRecord {\r\n        uint256 patientId;\r\n        string name;\r\n        string condition;\r\n        uint256 timestamp;\r\n        address provider; // Address of the healthcare provider who added the record\r\n    }\r\n\r\n    // Array to store medical records\r\n    MedicalRecord[] public medicalRecords;\r\n\r\n    // Mapping to store authorized providers for each patient\r\n    mapping(uint256 => mapping(address => bool)) public authorizedProviders;\r\n\r\n    // Event to log when a medical record is added\r\n    event MedicalRecordAdded(uint256 indexed patientId, string name, string condition, uint256 timestamp, address provider);\r\n\r\n    // Modifier to check if the sender is an authorized provider for a patient\r\n    modifier onlyAuthorized(uint256 _patientId) {\r\n        require(authorizedProviders[_patientId][msg.sender], \"Sender is not authorized for this patient\");\r\n        _;\r\n    }\r\n\r\n    // Function to add a new medical record\r\n    function addMedicalRecord(uint256 _patientId, string memory _name, string memory _condition) public{\r\n        MedicalRecord memory newRecord = MedicalRecord(_patientId, _name, _condition, block.timestamp, msg.sender);\r\n        medicalRecords.push(newRecord);\r\n        emit MedicalRecordAdded(_patientId, _name, _condition, block.timestamp, msg.sender);\r\n    }\r\n\r\n    // Function to authorize a healthcare provider to access patient's records\r\n    function authorizeProvider(uint256 _patientId, address _provider) public {\r\n        authorizedProviders[_patientId][_provider] = true;\r\n    }\r\n\r\n    // Function to revoke authorization from a healthcare provider\r\n    function revokeAuthorization(uint256 _patientId, address _provider) public {\r\n        authorizedProviders[_patientId][_provider] = false;\r\n    }\r\n\r\n    // Function to get the number of medical records for a patient\r\n    function getMedicalRecordCount() public view returns (uint256) {\r\n        return medicalRecords.length;\r\n    }\r\n\r\n    // Function to get all medical records\r\n    function getMedicalRecords() public view returns (MedicalRecord[] memory) {\r\n        return medicalRecords;\r\n    }\r\n}\r\n",
  "sourcePath": "C:\\Users\\aster\\Desktop\\project\\contracts\\Ehr.sol",
  "compiler": {
    "name": "solc",
    "version": "0.5.0+commit.1d4f565a.Emscripten.clang"
  },
  "schemaVersion": "3.4.16",
  "updatedAt": "2024-04-18T07:07:49.209Z",
  "networkType": "ethereum",
  "devdoc": {
    "methods": {}
  },
  "userdoc": {
    "methods": {}
  }
}